:100000000C942A000C9447000C9447000C94470071
:100010000C9447000C9447000C9447000C94470044
:100020000C9447000C9447000C9447000C94470034
:100030000C9447000C9447000C9447000C94470024
:100040000C9447000C9447000C9447000C94470014
:100050000C94470011241FBECFE5D8E0DEBFCDBF12
:1000600010E0A0E6B0E0E4E1F4E302C005900D92F8
:10007000A637B107D9F710E0A6E7B0E001C01D929E
:10008000AA37B107E1F70E9459180C94081A0C948A
:100090000000EF92FF920F931F937B018C0120E0F1
:1000A00030E040E05FE40E94490388238CF0C801FF
:1000B000B70120E030E040E05FE40E94C1010E940F
:1000C000A9039B01AC01205030404040504806C07D
:1000D000C801B7010E94A9039B01AC01B901CA0183
:1000E0001F910F91FF90EF900895A0E0B0E0EBE733
:1000F000F0E00C94CC18DC012B01FA019C919230B9
:1001000008F439C1EB018881823008F433C194309E
:1001100069F4843009F02FC111969C91119789815F
:10012000981709F428C1A0E6B0E025C1843009F48D
:1001300021C18230A9F4923009F01DC19A01AD01AC
:1001400088E0EA010990AE01E90109929E0181501F
:10015000C1F7E201898111969C918923818308C1AD
:10016000923009F407C112962D903C901397EB0141
:100170008A819B811496AD90BD90CD90DC901797AD
:10018000EC80FD800E811F819101281B390BB90184
:1001900037FF04C066277727621B730B6032710537
:1001A0000CF061C0121613066CF537014801062EDB
:1001B00004C096948794779467940A94D2F721E0C8
:1001C00030E040E050E004C0220F331F441F551FB1
:1001D0006A95D2F721503040404050402E213F21B7
:1001E00040235123211531054105510521F021E01E
:1001F00030E040E050E079018A01E628F72808293C
:1002000019293CC0232BD1F1260E371E350146019A
:10021000062E04C096948794779467940A94D2F734
:1002200021E030E040E050E004C0220F331F441FC3
:10023000551F6A95D2F721503040404050402A2146
:100240003B214C215D21211531054105510521F04E
:1002500021E030E040E050E059016A01A628B728CB
:10026000C828D9280BC0821593052CF01C01AA249C
:10027000BB24650103C0EE24FF24870111969C91E5
:10028000D20111968C91981709F445C0992339F041
:10029000A80197012A193B094C095D0906C0A6016E
:1002A00095012E193F09400B510B57FD08C01182D3
:1002B0003382228224833583468357831DC081E0A5
:1002C00081833382228288279927DC01821B930B4A
:1002D000A40BB50B84839583A683B7830DC0220F2F
:1002E000331F441F551F24833583468357838281E0
:1002F000938101979383828324813581468157813D
:10030000DA01C9010197A109B1098F5F9F4FAF4F72
:10031000BF4328F30BC0918333822282EA0CFB1C7B
:100320000C1D1D1DE482F5820683178383E0808304
:10033000248135814681578157FF1AC0C901AA27F8
:1003400097FDA095BA2F81709070A070B0705695EF
:10035000479537952795822B932BA42BB52B848318
:100360009583A683B7838281938101969383828349
:10037000DF0101C0D201CD01CDB7DEB7E2E10C94BF
:10038000E818A0E2B0E0E7ECF1E00C94D81869833B
:100390007A838B839C832D833E834F835887E9E048
:1003A000EE2EF12CEC0EFD1ECE010196B7010E943F
:1003B000D2048E010F5E1F4FCE010596B8010E9438
:1003C000D2048A8991E089278A8BC701B801AE01DE
:1003D000475E5F4F0E9475000E94FD03A096E6E015
:1003E0000C94F418A0E2B0E0E8EFF1E00C94D81817
:1003F00069837A838B839C832D833E834F835887C5
:10040000F9E0EF2EF12CEC0EFD1ECE010196B701A6
:100410000E94D2048E010F5E1F4FCE010596B801D7
:100420000E94D204C701B801AE01475E5F4F0E942F
:1004300075000E94FD03A096E6E00C94F418A0E27B
:10044000B0E0E5E2F2E00C94CC1869837A838B8308
:100450009C832D833E834F835887CE010196BE0136
:10046000675F7F4F0E94D204CE010596BE016F5E8A
:100470007F4F0E94D2049985923088F0898982301A
:10048000C8F0943019F4823051F404C0843029F457
:10049000923081F480E690E0C6C0923049F420E0CA
:1004A0009A858A89981321E02A87CE010996BBC0D4
:1004B000823049F420E09A858A89981321E02A8BBA
:1004C000CE014196B0C02D843E844F8458886D88FB
:1004D0007E888F88988CEE24FF248701AA24BB2471
:1004E000650140E050E060E070E0E0E0F0E0C10174
:1004F00081709070892BE9F0E60CF71C081D191D1E
:100500009A01AB012A0D3B1D4C1D5D1D80E090E062
:10051000A0E0B0E0E614F7040805190520F481E036
:1005200090E0A0E0B0E0BA01A901480F591F6A1F8E
:100530007B1FAA0CBB1CCC1CDD1C97FE08C081E0F5
:1005400090E0A0E0B0E0A82AB92ACA2ADB2A3196B6
:10055000E032F10549F0660C771C881C991C569412
:10056000479437942794C3CFFA85EA892B893C892D
:100570008B859C85280F391F2E5F3F4F17C0CA01FE
:1005800081709070892B61F016950795F794E79428
:1005900080E090E0A0E0B0E8E82AF92A0A2B1B2BC3
:1005A00076956795579547952F5F3F4F77FDE7CF36
:1005B0000CC0440F551F661F771F17FD4160EE0CDE
:1005C000FF1C001F111F21503040403090E05907A0
:1005D00090E0690790E4790760F32B8F3C8FDB0193
:1005E000CA018F779070A070B07080349105A1051A
:1005F000B10561F447FD0AC0E114F10401051105DC
:1006000029F0405C5F4F6F4F7F4F40781A8EFE1786
:1006100011F081E08A8F4D8F5E8F6F8F78A383E01A
:10062000898FCE0149960E94FD03A096E2E10C94C9
:10063000E818A8E1B0E0EFE1F3E00C94D818698382
:100640007A838B839C832D833E834F83588789E0F5
:10065000E82EF12CEC0EFD1ECE010196B7010E9492
:10066000D2048E010F5E1F4FCE010596B8010E9485
:10067000D2048985823040F08989823028F0C70110
:10068000B8010E944A0501C08FEF6896E6E00C941D
:10069000F418A8E1B0E0EFE4F3E00C94D818698313
:1006A0007A838B839C832D833E834F83588789E095
:1006B000E82EF12CEC0EFD1ECE010196B7010E9432
:1006C000D2048E010F5E1F4FCE010596B8010E9425
:1006D000D2048985823040F08989823028F0C701B0
:1006E000B8010E944A0501C08FEF6896E6E00C94BD
:1006F000F418A8E1B0E0EFE7F3E00C94D8186983B0
:100700007A838B839C832D833E834F83588789E034
:10071000E82EF12CEC0EFD1ECE010196B7010E94D1
:10072000D2048E010F5E1F4FCE010596B8010E94C4
:10073000D2048985823040F08989823028F0C7014F
:10074000B8010E944A0501C081E06896E6E00C9479
:10075000F418ACE0B0E0EFEAF3E00C94DC18698345
:100760007A838B839C83CE010196BE016B5F7F4FA2
:100770000E94D2048D81823061F1823050F1843048
:1007800021F48E81882351F12EC02F81388537FDC9
:1007900020C06E812F3131051CF06623F9F023C093
:1007A0008EE190E0821B930B29853A854B855C8511
:1007B00004C056954795379527958A95D2F76623B5
:1007C000B1F050954095309521953F4F4F4F5F4F79
:1007D0000EC020E030E040E050E009C02FEF3FEFD6
:1007E0004FEF5FE704C020E030E040E050E8B9019F
:1007F000CA012C96E2E00C94F818DF92EF92FF9277
:100800000F931F93FC01E480F58006811781D1804E
:100810008081823048F480E090E0A0E1B0E0E82AF6
:10082000F92A0A2B1B2BA5C0843009F49FC0823003
:1008300021F4EE24FF24870105C0E114F104010531
:10084000110519F4E0E0F0E096C0628173819FEF3A
:10085000623879070CF05BC022E83FEF261B370BAC
:100860002A3131052CF020E030E040E050E02AC091
:10087000B801A701022E04C0769567955795479554
:100880000A94D2F781E090E0A0E0B0E004C0880FC5
:10089000991FAA1FBB1F2A95D2F70197A109B10979
:1008A0008E219F21A023B1230097A105B10521F03E
:1008B00081E090E0A0E0B0E09A01AB01282B392B59
:1008C0004A2B5B2BDA01C9018F779070A070B07052
:1008D00080349105A105B10539F427FF09C0205CDA
:1008E0003F4F4F4F5F4F04C0215C3F4F4F4F5F4F13
:1008F000E0E0F0E02030A0E03A07A0E04A07A0E402
:100900005A0710F0E1E0F0E079018A0127C0603871
:10091000710564F5FB01E158FF4FD801C7018F77DE
:100920009070A070B07080349105A105B10539F4C4
:10093000E7FE0DC080E490E0A0E0B0E004C08FE3EB
:1009400090E0A0E0B0E0E80EF91E0A1F1B1F17FFA1
:1009500005C016950795F794E794319687E01695AC
:100960000795F794E7948A95D1F705C0EE24FF2404
:100970008701EFEFF0E06E2F679566276795902F60
:100980009F77D794DD24D7948E2F8695492F462BB9
:10099000582F5D29B701CA011F910F91FF90EF9069
:1009A000DF900895FC01DB01408151812281622F9B
:1009B0006F7770E0221F2227221F9381892F880FD3
:1009C000822B282F30E0991F9927991F11969C930D
:1009D000119721153105A9F54115510561057105DD
:1009E00011F482E037C082E89FEF13969C938E93B8
:1009F00012979A01AB0167E0220F331F441F551F66
:100A00006A95D1F783E08C930DC0220F331F441FEA
:100A1000551F12968D919C911397019713969C9355
:100A20008E931297203080E0380780E0480780E4FA
:100A3000580758F314962D933D934D935C93179755
:100A400008952F3F310579F4411551056105710570
:100A500019F484E08C93089564FF03C081E08C93C3
:100A600012C01C9210C02F57304013963C932E9307
:100A7000129783E08C9387E0440F551F661F771F02
:100A80008A95D1F7706414964D935D936D937C9322
:100A9000179708951F93DC01FB019C91923008F495
:100AA00047C08081823008F443C0943051F41196DD
:100AB0001C91843099F58181682F70E0611B710968
:100AC0003FC0843021F0923031F48230B9F181811D
:100AD000882389F12DC011961C9111978230F1F075
:100AE00081811817D9F412962D913C911397828128
:100AF00093818217930794F028173907BCF0149656
:100B00008D919D910D90BC91A02D248135814681C0
:100B10005781281739074A075B0718F4112341F05A
:100B20000AC082179307A407B50740F4112319F0F0
:100B300061E070E005C06FEF7FEF02C060E070E041
:100B4000CB011F910895DF93CF93CDB7DEB76D979B
:100B50000FB6F894DEBF0FBECDBF8D8F83E060E08F
:100B600040E00E94971583E061E040E00E94971505
:100B700081E06D8D0E94991783E062E041E00E9460
:100B8000971580E090E0A0E0B0E4898F9A8FAB8F5A
:100B9000BC8F698D7A8D8B8D9C8D20E030E04AEF83
:100BA00054E40E941F02DC01CB018D8B9E8BAF8B26
:100BB000B88F6D897E898F89988D20E030E040E87C
:100BC0005FE30E94790388232CF481E090E09C8B02
:100BD0008B8B3FC06D897E898F89988D20E03FEF98
:100BE0004FE757E40E94190318164CF5698D7A8D6A
:100BF0008B8D9C8D20E030E040E251E40E941F028A
:100C0000DC01CB01BC01CD010E944900DC01CB011C
:100C10009C8B8B8B0FC088EC90E09A8B898B898999
:100C20009A890197F1F79A8B898B8B899C89019717
:100C30009C8B8B8B8B899C89009769F714C06D897D
:100C40007E898F89988D0E944900DC01CB019C8BA5
:100C50008B8B8B899C89988B8F878F85988901973F
:100C6000F1F7988B8F8783E062E040E00E94971550
:100C700080E090E0A0E0B0E48B879C87AD87BE87E2
:100C80006B857C858D859E8520E030E04AEF54E4BD
:100C90000E941F02DC01CB018F839887A987BA8746
:100CA0006F81788589859A8520E030E040E85FE3B0
:100CB0000E94790388232CF481E090E09E838D8349
:100CC0003FC06F81788589859A8520E03FEF4FE7A7
:100CD00057E40E94190318164CF56B857C858D85A9
:100CE0009E8520E030E040E251E40E941F02DC01DA
:100CF000CB01BC01CD010E944900DC01CB019E83E8
:100D00008D830FC088EC90E09C838B838B819C81CA
:100D10000197F1F79C838B838D819E8101979E8340
:100D20008D838D819E81009769F714C06F817885CE
:100D300089859A850E944900DC01CB019E838D83C1
:100D40008D819E819A83898389819A810197F1F7A8
:100D50009A8389836D960FB6F894DEBF0FBECDBF20
:100D6000CF91DF910895DF93CF93CDB7DEB76D9725
:100D70000FB6F894DEBF0FBECDBF8D8F83E060E06D
:100D800041E00E94971583E061E040E00E949715E2
:100D900081E06D8D0E94991783E062E041E00E943E
:100DA000971580E090E0A0E0B0E4898F9A8FAB8F38
:100DB000BC8F698D7A8D8B8D9C8D20E030E04AEF61
:100DC00054E40E941F02DC01CB018D8B9E8BAF8B04
:100DD000B88F6D897E898F89988D20E030E040E85A
:100DE0005FE30E94790388232CF481E090E09C8BE0
:100DF0008B8B3FC06D897E898F89988D20E03FEF76
:100E00004FE757E40E94190318164CF5698D7A8D47
:100E10008B8D9C8D20E030E040E251E40E941F0267
:100E2000DC01CB01BC01CD010E944900DC01CB01FA
:100E30009C8B8B8B0FC088EC90E09A8B898B898977
:100E40009A890197F1F79A8B898B8B899C890197F5
:100E50009C8B8B8B8B899C89009769F714C06D895B
:100E60007E898F89988D0E944900DC01CB019C8B83
:100E70008B8B8B899C89988B8F878F85988901971D
:100E8000F1F7988B8F8783E062E040E00E9497152E
:100E900080E090E0A0E0B0E48B879C87AD87BE87C0
:100EA0006B857C858D859E8520E030E04AEF54E49B
:100EB0000E941F02DC01CB018F839887A987BA8724
:100EC0006F81788589859A8520E030E040E85FE38E
:100ED0000E94790388232CF481E090E09E838D8327
:100EE0003FC06F81788589859A8520E03FEF4FE785
:100EF00057E40E94190318164CF56B857C858D8587
:100F00009E8520E030E040E251E40E941F02DC01B7
:100F1000CB01BC01CD010E944900DC01CB019E83C5
:100F20008D830FC088EC90E09C838B838B819C81A8
:100F30000197F1F79C838B838D819E8101979E831E
:100F40008D838D819E81009769F714C06F817885AC
:100F500089859A850E944900DC01CB019E838D839F
:100F60008D819E819A83898389819A810197F1F786
:100F70009A8389836D960FB6F894DEBF0FBECDBFFE
:100F8000CF91DF910895DF93CF93CDB7DEB7E89788
:100F90000FB6F894DEBF0FBECDBF83E060E041E046
:100FA0000E94701483E061E041E00E94701483E0CD
:100FB00062E041E00E94701481E06FEF0E945717D9
:100FC00080E090E0A0E2B2E48DAB9EABAFABB8AFF7
:100FD0006DA97EA98FA998AD20E030E04AEF54E4D6
:100FE0000E941F02DC01CB0189AB9AABABABBCAB5F
:100FF00069A97AA98BA99CA920E030E040E85FE3C9
:101000000E94790388232CF481E090E098AB8FA7AD
:101010003FC069A97AA98BA99CA920E03FEF4FE7BF
:1010200057E40E94190318164CF56DA97EA98FA9E3
:1010300098AD20E030E040E251E40E941F02DC0164
:10104000CB01BC01CD010E944900DC01CB0198AB72
:101050008FA70FC088EC90E09EA78DA78DA59EA5B9
:101060000197F1F79EA78DA78FA598A9019798AB37
:101070008FA78FA598A9009769F714C069A97AA9C5
:101080008BA99CA90E944900DC01CB0198AB8FA7DA
:101090008FA598A99CA78BA78BA59CA50197F1F775
:1010A0009CA78BA788E30E94A30580E090E0A0E2C4
:1010B000B2E48FA398A7A9A7BAA76FA178A589A51D
:1010C0009AA520E030E04AEF54E40E941F02DC01C0
:1010D000CB018BA39CA3ADA3BEA36BA17CA18DA1CF
:1010E0009EA120E030E040E85FE30E94790388237E
:1010F0002CF481E090E09AA389A33FC06BA17CA16E
:101100008DA19EA120E03FEF4FE757E40E94190315
:1011100018164CF56FA178A589A59AA520E030E0B6
:1011200040E251E40E941F02DC01CB01BC01CD0171
:101130000E944900DC01CB019AA389A30FC088EC6F
:1011400090E098A38F8F8F8D98A10197F1F798A3C6
:101150008F8F89A19AA101979AA389A389A19AA1A6
:10116000009769F714C06BA17CA18DA19EA10E947C
:101170004900DC01CB019AA389A389A19AA19E8F82
:101180008D8F8D8D9E8D0197F1F79E8F8D8F8FE0C6
:101190000E94A30580E090E0A0E2B2E4898F9A8FDC
:1011A000AB8FBC8F698D7A8D8B8D9C8D20E030E06C
:1011B0004AEF54E40E941F02DC01CB018D8B9E8B11
:1011C000AF8BB88F6D897E898F89988D20E030E054
:1011D00040E85FE30E94790388232CF481E090E0EB
:1011E0009C8B8B8B3FC06D897E898F89988D20E089
:1011F0003FEF4FE757E40E94190318164CF5698D2D
:101200007A8D8B8D9C8D20E030E040E251E40E948D
:101210001F02DC01CB01BC01CD010E944900DC01B1
:10122000CB019C8B8B8B0FC088EC90E09A8B898BC9
:1012300089899A890197F1F79A8B898B8B899C8987
:1012400001979C8B8B8B8B899C89009769F714C0C5
:101250006D897E898F89988D0E944900DC01CB01C0
:101260009C8B8B8B8B899C89988B8F878F8598899A
:101270000197F1F7988B8F8781E00E94A30580E0AA
:1012800090E0A0E2B2E48B879C87AD87BE876B8538
:101290007C858D859E8520E030E04AEF54E40E94F5
:1012A0001F02DC01CB018F839887A987BA876F81E2
:1012B000788589859A8520E030E040E85FE30E94E8
:1012C000790388232CF481E090E09E838D833FC0D6
:1012D0006F81788589859A8520E03FEF4FE757E455
:1012E0000E94190318164CF56B857C858D859E85AB
:1012F00020E030E040E251E40E941F02DC01CB011B
:10130000BC01CD010E944900DC01CB019E838D838D
:101310000FC088EC90E09C838B838B819C8101972C
:10132000F1F79C838B838D819E8101979E838D83B2
:101330008D819E81009769F714C06F8178858985BA
:101340009A850E944900DC01CB019E838D838D81AB
:101350009E819A83898389819A810197F1F79A8383
:101360008983E8960FB6F894DEBF0FBECDBFCF914C
:10137000DF910895DF93CF9300D000D000D0CDB798
:10138000DEB79C838B836D834E838D81882F90E0A5
:101390000024969587950794969587950794982F9E
:1013A000802D982F8E81890F8A838A81803438F42A
:1013B0008A81863120F081E060E00E94230A8A81E0
:1013C000883620F080E060E00E94230A19828D8137
:1013D0006E810E94230A198222C08A818F3031F4E3
:1013E00081E060E00E94230A80E48A838A8180355C
:1013F00029F480E060E00E94230A1A828981282F64
:1014000030E08B819C81FC01E20FF31F80810E9400
:10141000B3068A818F5F8A8389818F5F89838981FF
:10142000282F30E08B819C81FC01E20FF31F80812B
:10143000882399F626960FB6F894DEBF0FBECDBF6F
:10144000CF91DF910895DF93CF9300D00F92CDB766
:10145000DEB78A836B838A81882F90E0002496957B
:1014600087950794969587950794982F802D982FA8
:101470008B81890F8058898389810E94A3050F90F1
:101480000F900F90CF91DF910895DF93CF93CDB759
:10149000DEB727970FB6F894DEBF0FBECDBF9C8393
:1014A0008B836D834E832F838D81882F90E0880FEF
:1014B000991F880F991F880F991F8A8319828A8123
:1014C000805C0E94A30519820EC08981282F30E01C
:1014D0008B819C81FC01E20FF31F80810E94B30687
:1014E00089818F5F89838981883078F38E816F81CC
:1014F0000E94230A8D810E94B30627960FB6F894A6
:10150000DEBF0FBECDBFCF91DF910895DF93CF93A4
:10151000CDB7DEB728970FB6F894DEBF0FBECDBFAC
:101520009E838D831A82198280E190E00E940319C4
:101530009C838B838D819E81009709F580E30E94B7
:10154000B3061DC08981282F30E08B819C81FC016E
:10155000E20FF31F8D819E812AE030E0B9010E94E5
:10156000A51880838D819E812AE030E0B9010E9418
:10157000A518CB019E838D8389818F5F89838D819F
:101580009E810097F9F6898181508A837EC08A8185
:10159000282F332727FD30958B819C81FC01E20F9A
:1015A000F31F8081282F30E038872F838F81988523
:1015B0008430910509F44FC02F81388525303105DD
:1015C000D4F48F81988581309105C9F12F813885B8
:1015D000223031052CF48F819885009761F152C03B
:1015E0002F8138852230310571F18F8198858330C4
:1015F000910569F147C02F81388527303105B9F150
:101600008F819885883091055CF42F81388525304D
:10161000310529F18F8198858630910521F132C0FD
:101620002F8138852830310531F18F8198858930B7
:10163000910529F127C080E30E94B30623C081E30E
:101640000E94B3061FC082E30E94B3061BC083E35F
:101650000E94B30617C084E30E94B30613C085E35B
:101660000E94B3060FC086E30E94B3060BC087E357
:101670000E94B30607C088E30E94B30603C089E353
:101680000E94B3068A8181508A838A8188230CF064
:101690007ECF28960FB6F894DEBF0FBECDBFCF9198
:1016A000DF910895DF93CF93CDB7DEB763970FB681
:1016B000F894DEBF0FBECDBF8F87798B688B8F8587
:1016C000282F30E03B8B2A8B8A899B8988309105B3
:1016D00009F40BC12A893B89293031055CF58A89D7
:1016E0009B898430910509F46EC02A893B89253095
:1016F00031059CF48A899B898230910509F453C095
:101700002A893B89233031050CF055C08A899B8991
:101710008130910509F43FC02EC12A893B892630CA
:10172000310509F4D2C08A899B89873091050CF074
:10173000D4C0C3C02A893B892C30310509F4F4C0D8
:101740008A899B898D3091056CF42A893B892A30DE
:10175000310509F4D9C08A899B898B3091050CF039
:10176000DBC0CAC02A893B892E30310509F4ECC0A0
:101770008A899B898E3091050CF4DEC02A893B89C9
:101780002F30310509F4E8C08A899B8980319105A1
:1017900009F4EAC0F0C087E30E94B306E889F9893A
:1017A00087E08083E8C084E30E94B306E889F98972
:1017B00084E08083E0C081E30E94B306E889F98970
:1017C00081E08083D8C081E00E94A30580E090E0A2
:1017D000A0E2B2E48B879C87AD87BE876B857C8552
:1017E0008D859E8520E030E04AEF54E40E941F0280
:1017F000DC01CB018F839887A987BA876F817885B1
:1018000089859A8520E030E040E85FE30E94790313
:1018100088232CF481E090E09E838D833FC06F810C
:10182000788589859A8520E03FEF4FE757E40E944D
:10183000190318164CF56B857C858D859E8520E0F7
:1018400030E040E251E40E941F02DC01CB01BC0108
:10185000CD010E944900DC01CB019E838D830FC026
:1018600088EC90E09C838B838B819C810197F1F7BE
:101870009C838B838D819E8101979E838D838D8137
:101880009E81009769F714C06F81788589859A8554
:101890000E944900DC01CB019E838D838D819E8156
:1018A0009A83898389819A810197F1F79A83898341
:1018B00080E060E00E94230A5EC088E30E94B306D5
:1018C000E889F98988E0808356C085E30E94B306E1
:1018D000E889F98985E080834EC082E30E94B306DF
:1018E000E889F98982E0808346C080E30E94B306DC
:1018F000E889F98910823FC089E30E94B306E8892C
:10190000F98989E0808337C086E30E94B306E889BD
:10191000F98986E080832FC083E30E94B306E889BB
:10192000F98983E0808327C08DE30E94B306E889AC
:10193000F9898DE380831FC08FE20E94B306E88996
:10194000F9898FE2808317C08AE20E94B306E88992
:10195000F9898AE280830FC08DE20E94B306E8898C
:10196000F9898DE2808307C08BE20E94B306E88983
:10197000F9898BE2808363960FB6F894DEBF0FBEC1
:10198000CDBFCF91DF910895DF93CF93CDB7DEB771
:1019900061970FB6F894DEBF0FBECDBF988B8F87CF
:1019A000698B1E861D861C861B861B8618C68B852A
:1019B000282F30E08F859889FC01E20FF31F80818A
:1019C0008B3209F06BC11D868C858E871A8652C1B9
:1019D0008B85882F90E09C012F5F3F4F8F859889E2
:1019E000FC01E20FF31F80818B3259F49D858E85B7
:1019F000890F8C878C858E871D868B858F5F8B8763
:101A000039C18B85882F90E09C012F5F3F4F8F85D8
:101A10009889FC01E20FF31F80818D3209F435C1F2
:101A20008B85882F90E09C012F5F3F4F8F85988991
:101A3000FC01E20FF31F80818A3209F076C019861B
:101A40008B858F5F8B8781E08A871FC08985882F70
:101A500090E09C01220F331FC901880F991F880F46
:101A6000991F820F931F482F8B85882F90E09C0130
:101A70002F5F3F4F8F859889FC01E20FF31F808114
:101A8000840F89878B858F5F8B878B85882F90E06C
:101A90009C012F5F3F4F8F859889FC01E20FF31F58
:101AA00080818A32C9F18B85882F90E09C012F5F5D
:101AB0003F4F8F859889FC01E20FF31F80818B32A5
:101AC00059F18B85882F90E09C012F5F3F4F8F85C8
:101AD0009889FC01E20FF31F80818D32E9F08B853C
:101AE000882F90E09C012F5F3F4F8F859889FC01E4
:101AF000E20FF31F80818F3279F08B85882F90E081
:101B00009C012F5F3F4F8F859889FC01E20FF31FE7
:101B100080818D3309F09ACF99858D85989F902D7E
:101B200011248E85890F8C87B0C08B85882F90E01B
:101B30009C012F5F3F4F8F859889FC01E20FF31FB7
:101B400080818F3209F077C018868B858F5F8B87F5
:101B500081E08A871FC08885882F90E09C01220F32
:101B6000331FC901880F991F880F991F820F931F78
:101B7000482F8B85882F90E09C012F5F3F4F8F85EA
:101B80009889FC01E20FF31F8081840F88878B8581
:101B90008F5F8B878B85882F90E09C012F5F3F4F55
:101BA0008F859889FC01E20FF31F80818A32C9F189
:101BB0008B85882F90E09C012F5F3F4F8F85988900
:101BC000FC01E20FF31F80818B3259F18B85882F46
:101BD00090E09C012F5F3F4F8F859889FC01E20FB9
:101BE000F31F80818D32E9F08B85882F90E09C0176
:101BF0002F5F3F4F8F859889FC01E20FF31F808193
:101C00008F3279F08B85882F90E09C012F5F3F4FBA
:101C10008F859889FC01E20FF31F80818D3309F0D5
:101C20009ACF8D859885692F0E949918982F8E8557
:101C3000890F8C872AC08D85882F90E09C01220F08
:101C4000331FC901880F991F880F991F820F931F97
:101C5000482F8B85882F90E09C012F5F3F4F8F8509
:101C60009889FC01E20FF31F8081840F8D878B859B
:101C70008F5F8B878B85282F30E08989882F90E0B4
:101C80000297281739070CF4A3CE8A85882309F018
:101C900090C48D859E85890F8C878BC48B85282F5A
:101CA00030E08F859889FC01E20FF31F80818D322F
:101CB00009F06DC11D868C858E871F8254C18B856E
:101CC000882F90E09C012F5F3F4F8F859889FC0102
:101CD000E20FF31F80818B3209F450C18B85882F6E
:101CE00090E09C012F5F3F4F8F859889FC01E20FA8
:101CF000F31F80818D3269F49E858D85292F281BE5
:101D0000822F8C878C858E871D868B858F5F8B8736
:101D10002AC18B85882F90E09C012F5F3F4F8F85D4
:101D20009889FC01E20FF31F80818A3209F076C0A6
:101D30001E828B858F5F8B8781E08F831FC08E8192
:101D4000882F90E09C01220F331FC901880F991F33
:101D5000880F991F820F931F482F8B85882F90E043
:101D60009C012F5F3F4F8F859889FC01E20FF31F85
:101D70008081840F8E838B858F5F8B878B85882FE7
:101D800090E09C012F5F3F4F8F859889FC01E20F07
:101D9000F31F80818A32C9F18B85882F90E09C01E6
:101DA0002F5F3F4F8F859889FC01E20FF31F8081E1
:101DB0008B3259F18B85882F90E09C012F5F3F4F2C
:101DC0008F859889FC01E20FF31F80818D32E9F045
:101DD0008B85882F90E09C012F5F3F4F8F859889DE
:101DE000FC01E20FF31F80818F3279F08B85882F01
:101DF00090E09C012F5F3F4F8F859889FC01E20F97
:101E0000F31F80818D3309F09ACF9E818D85989F35
:101E1000902D11248E85891B8C87B0C08B85882FCF
:101E200090E09C012F5F3F4F8F859889FC01E20F66
:101E3000F31F80818F3209F077C01D828B858F5F01
:101E40008B8781E08F831FC08D81882F90E09C015C
:101E5000220F331FC901880F991F880F991F820F06
:101E6000931F482F8B85882F90E09C012F5F3F4F59
:101E70008F859889FC01E20FF31F8081840F8D8389
:101E80008B858F5F8B878B85882F90E09C012F5FE0
:101E90003F4F8F859889FC01E20FF31F80818A32C2
:101EA000C9F18B85882F90E09C012F5F3F4F8F8574
:101EB0009889FC01E20FF31F80818B3259F18B85E9
:101EC000882F90E09C012F5F3F4F8F859889FC0100
:101ED000E20FF31F80818D32E9F08B85882F90E02F
:101EE0009C012F5F3F4F8F859889FC01E20FF31F04
:101EF00080818F3279F08B85882F90E09C012F5F55
:101F00003F4F8F859889FC01E20FF31F80818D334D
:101F100009F09ACF8D859D81692F0E949918982F7D
:101F20008E85891B8C872AC08D85882F90E09C0127
:101F3000220F331FC901880F991F880F991F820F25
:101F4000931F482F8B85882F90E09C012F5F3F4F78
:101F50008F859889FC01E20FF31F8081840F8D87A4
:101F60008B858F5F8B878B85282F30E08989882F21
:101F700090E00297281739070CF4A1CE8F818823AF
:101F800009F017C38E859D85891B8C8712C38B85AD
:101F9000282F30E08F859889FC01E20FF31F8081A4
:101FA0008A3209F076C11D868C858E8760C18B854B
:101FB000882F90E09C012F5F3F4F8F859889FC010F
:101FC000E20FF31F80818B3209F45CC18B85882F6F
:101FD00090E09C012F5F3F4F8F859889FC01E20FB5
:101FE000F31F80818D3209F44DC18B85882F90E0DD
:101FF0009C012F5F3F4F8F859889FC01E20FF31FF3
:1020000080818A3209F08AC01C828B858F5F8B8722
:102010001FC08C81882F90E09C01220F331FC901C3
:10202000880F991F880F991F820F931F482F8B8548
:10203000882F90E09C012F5F3F4F8F859889FC018E
:10204000E20FF31F8081840F8C838B858F5F8B87DA
:102050008B85882F90E09C012F5F3F4F8F8598895B
:10206000FC01E20FF31F80818A32C9F18B85882F32
:1020700090E09C012F5F3F4F8F859889FC01E20F14
:10208000F31F80818B3259F18B85882F90E09C0162
:102090002F5F3F4F8F859889FC01E20FF31F8081EE
:1020A0008D32E9F08B85882F90E09C012F5F3F4FA8
:1020B0008F859889FC01E20FF31F80818F3279F0C0
:1020C0008B85882F90E09C012F5F3F4F8F859889EB
:1020D000FC01E20FF31F80818D3309F09ACF8C81D0
:1020E000282F30E08D85882F90E0A901489F90012E
:1020F000499F300D589F300D11248E85882F90E018
:10210000AC01249FC001259F900D349F900D112498
:102110008C878C858E8781E08D87B4C08B85882FD6
:1021200090E09C012F5F3F4F8F859889FC01E20F63
:10213000F31F80818F3209F07BC01B828B858F5FFC
:102140008B871FC08B81882F90E09C01220F331F4B
:10215000C901880F991F880F991F820F931F482F5D
:102160008B85882F90E09C012F5F3F4F8F8598894A
:10217000FC01E20FF31F8081840F8B838B858F5FBF
:102180008B878B85882F90E09C012F5F3F4F8F8539
:102190009889FC01E20FF31F80818A32C9F18B8597
:1021A000882F90E09C012F5F3F4F8F859889FC011D
:1021B000E20FF31F80818B3259F18B85882F90E0DD
:1021C0009C012F5F3F4F8F859889FC01E20FF31F21
:1021D00080818D32E9F08B85882F90E09C012F5F04
:1021E0003F4F8F859889FC01E20FF31F80818F326A
:1021F00079F08B85882F90E09C012F5F3F4F8F8572
:102200009889FC01E20FF31F80818D3309F09ACF8A
:102210008D859B81692F0E949918982F8E85989F94
:10222000802D11248C878C858E8781E08D872AC034
:102230008D85882F90E09C01220F331FC901880FE4
:10224000991F880F991F820F931F482F8B85882F06
:1022500090E09C012F5F3F4F8F859889FC01E20F32
:10226000F31F8081840F8D878B858F5F8B878B8594
:10227000282F30E08989882F90E0029728173907A6
:102280000CF495CE8E859D85899F802D11248C8799
:1022900090C18B85282F30E08F859889FC01E20F53
:1022A000F31F80818F3209F06CC11D868C858E876B
:1022B00056C18B85882F90E09C012F5F3F4F8F8503
:1022C0009889FC01E20FF31F80818B3209F452C11F
:1022D0008B85882F90E09C012F5F3F4F8F859889D9
:1022E000FC01E20FF31F80818D3209F443C18B851D
:1022F000882F90E09C012F5F3F4F8F859889FC01CC
:10230000E20FF31F80818A3209F07BC01A828B852D
:102310008F5F8B871FC08A81882F90E09C01220FDE
:10232000331FC901880F991F880F991F820F931FB0
:10233000482F8B85882F90E09C012F5F3F4F8F8522
:102340009889FC01E20FF31F8081840F8A838B85BB
:102350008F5F8B878B85882F90E09C012F5F3F4F8D
:102360008F859889FC01E20FF31F80818A32C9F1C1
:102370008B85882F90E09C012F5F3F4F8F85988938
:10238000FC01E20FF31F80818B3259F18B85882F7E
:1023900090E09C012F5F3F4F8F859889FC01E20FF1
:1023A000F31F80818D32E9F08B85882F90E09C01AE
:1023B0002F5F3F4F8F859889FC01E20FF31F8081CB
:1023C0008F3279F08B85882F90E09C012F5F3F4FF3
:1023D0008F859889FC01E20FF31F80818D3309F00E
:1023E0009ACF8E859D85692F0E949918982F8A8192
:1023F000989F802D11248C878C858E8781E08D8716
:10240000B9C08B85882F90E09C012F5F3F4F8F854F
:102410009889FC01E20FF31F80818F3209F080C0A0
:1024200019828B858F5F8B871FC08981882F90E0F1
:102430009C01220F331FC901880F991F880F991F14
:10244000820F931F482F8B85882F90E09C012F5F70
:102450003F4F8F859889FC01E20FF31F8081840F25
:1024600089838B858F5F8B878B85882F90E09C017C
:102470002F5F3F4F8F859889FC01E20FF31F80810A
:102480008A32C9F18B85882F90E09C012F5F3F4FE6
:102490008F859889FC01E20FF31F80818B3259F1FF
:1024A0008B85882F90E09C012F5F3F4F8F85988907
:1024B000FC01E20FF31F80818D32E9F08B85882FBC
:1024C00090E09C012F5F3F4F8F859889FC01E20FC0
:1024D000F31F80818F3279F08B85882F90E09C01EB
:1024E0002F5F3F4F8F859889FC01E20FF31F80819A
:1024F0008D3309F09ACF8E859D85692F0E9499189A
:10250000482F50E08981282F30E0CA01B9010E948C
:10251000B918CB018C878C858E8781E08D872AC086
:102520008D85882F90E09C01220F331FC901880FF1
:10253000991F880F991F820F931F482F8B85882F13
:1025400090E09C012F5F3F4F8F859889FC01E20F3F
:10255000F31F8081840F8D878B858F5F8B878B85A1
:10256000282F30E08989882F90E0029728173907B3
:102570000CF49FCE8E859D85692F0E9499188C87BB
:1025800018C08B85282F30E08F859889FC01E20FD9
:10259000F31F40818C85882F90E09C01220F331F10
:1025A000C901880F991F880F991F820F931F840FED
:1025B0008C878B85882F90E09C012F5F3F4F8F8504
:1025C0009889FC01E20FF31F80818D3329F48C85FB
:1025D000882F90E00E94860A8B858F5F8B878B8582
:1025E000282F30E08989882F90E001972817390734
:1025F0000CF4DDC961960FB6F894DEBF0FBECDBFF7
:10260000CF91DF910895DF93CF93CDB7DEB7669773
:102610000FB6F894DEBF0FBECDBF9A8B898B7C8B33
:102620006B8B5E8B4D8B188A1F8696C00E9406149A
:10263000888B8889882309F48FC08889843009F0C1
:102640007DC081E00E94A30580E090E0A0E2B2E4BA
:102650008B879C87AD87BE876B857C858D859E85A6
:1026600020E030E04AEF54E40E941F02DC01CB017D
:102670008F839887A987BA876F81788589859A859E
:1026800020E030E040E85FE30E94790388232CF4E7
:1026900081E090E09E838D833FC06F81788589853E
:1026A0009A8520E03FEF4FE757E40E941903181680
:1026B0004CF56B857C858D859E8520E030E040E281
:1026C00051E40E941F02DC01CB01BC01CD010E943C
:1026D0004900DC01CB019E838D830FC088EC90E024
:1026E0009C838B838B819C810197F1F79C838B83E7
:1026F0008D819E8101979E838D838D819E81009720
:1027000069F714C06F81788589859A850E94490090
:10271000DC01CB019E838D838D819E819A83898389
:1027200089819A810197F1F79A83898380E060E03B
:102730000E94230A1F861E8A1D8A0EC08F85282F9D
:1027400030E089899A89280F391F8889B9010E9448
:10275000520B8F858F5F8F8788898C3009F066CF09
:10276000EB89FC898F85808366960FB6F894DEBF6F
:102770000FBECDBFCF91DF910895DF93CF930F921E
:10278000CDB7DEB719821BC08981882F90E0FC018C
:10279000E259FF4F908184E0692F40E00E9470145D
:1027A0008981882F90E0FC01E259FF4F908184E0FD
:1027B000692F41E00E94971589818F5F8983898104
:1027C000843010F319821BC08981882F90E0FC01AE
:1027D000EE58FF4F908184E0692F41E00E94701411
:1027E0008981882F90E0FC01EE58FF4F908184E0B2
:1027F000692F41E00E94971589818F5F89838981C4
:10280000843010F30F90CF91DF910895DF93CF9331
:1028100000D000D0CDB7DEB71B821A8281E08C8356
:1028200019821A8251C08A81882F90E0FC01EE58EB
:10283000FF4F908184E0692F40E00E9497151B8232
:1028400031C08B81882F90E0FC01E259FF4F9081CD
:102850009E012C5F3F4F84E0692FA9010E94BF16A3
:102860001BC08A81882F90E0880F991F880F991FBD
:10287000982F8B81890F8F5F89838B81882F90E0C0
:10288000FC01E259FF4F90819E012C5F3F4F84E095
:10289000692FA9010E94BF168C81882311F38B81B7
:1028A0008F5F8B838B81843060F28A81882F90E0E8
:1028B000FC01EE58FF4F908184E0692F41E00E94B7
:1028C00097158A818F5F8A838A81843008F4ABCF21
:1028D00089810F900F900F900F90CF91DF91089505
:1028E000DF93CF93CDB7DEB72D970FB6F894DEBF49
:1028F0000FBECDBF89836A834B838981882309F406
:102900000DC18981853008F009C18A81883008F0BD
:1029100005C18B81823008F001C18981282F30E008
:102920003D872C878C859D858230910509F450C0A8
:102930002C853D852330310534F48C859D8581308F
:10294000910571F0EBC02C853D852330310509F4EC
:1029500077C08C859D858430910509F4A9C0DEC0BF
:102960008B81282F30E03B872A878A859B850097BB
:10297000D1F02A853B852130310509F0CFC0AAE38B
:10298000B0E0EAE3F0E08081482F8A81282F30E030
:1029900081E090E0022E02C0880F991F0A94E2F7AE
:1029A000842B8C93BBC0AAE3B0E0EAE3F0E0808123
:1029B000482F8A81282F30E081E090E0022E02C06B
:1029C000880F991F0A94E2F7809584238C93A6C000
:1029D0008B81282F30E03987288788859985009753
:1029E000D1F0288539852130310509F097C0A7E35A
:1029F000B0E0E7E3F0E08081482F8A81282F30E0C3
:102A000081E090E0022E02C0880F991F0A94E2F73D
:102A1000842B8C9383C0A7E3B0E0E7E3F0E08081F0
:102A2000482F8A81282F30E081E090E0022E02C0FA
:102A3000880F991F0A94E2F7809584238C936EC0C7
:102A40008B81282F30E03F832E838E819F810097DA
:102A5000D1F02E813F812130310509F05FC0A4E320
:102A6000B0E0E4E3F0E08081482F8A81282F30E055
:102A700081E090E0022E02C0880F991F0A94E2F7CD
:102A8000842B8C934BC0A4E3B0E0E4E3F0E08081BE
:102A9000482F8A81282F30E081E090E0022E02C08A
:102AA000880F991F0A94E2F7809584238C9336C08F
:102AB0008B81282F30E03D832C838C819D81009772
:102AC000C9F02C813D812130310541F5A1E3B0E011
:102AD000E1E3F0E08081482F8A81282F30E081E017
:102AE00090E0022E02C0880F991F0A94E2F7842B0F
:102AF0008C9314C0A1E3B0E0E1E3F0E08081482FC3
:102B00008A81282F30E081E090E0022E02C0880FF9
:102B1000991F0A94E2F7809584238C932D960FB623
:102B2000F894DEBF0FBECDBFCF91DF910895DF9344
:102B3000CF93CDB7DEB72D970FB6F894DEBF0FBE9B
:102B4000CDBF89836A834B838981882309F40EC1B1
:102B50008981853008F00AC18A81883008F006C171
:102B60008B81823008F002C18981282F30E03D87B7
:102B70002C878C859D858230910509F450C02C8569
:102B80003D852330310534F48C859D858130910558
:102B900071F0ECC02C853D852330310509F477C0F8
:102BA0008C859D858430910509F4A9C0DFC08B8197
:102BB000282F30E03B872A878A859B85009731F054
:102BC0002A853B8521303105B1F0D0C0ABE3B0E0C0
:102BD000EBE3F0E08081482F8A81282F30E081E00C
:102BE00090E0022E02C0880F991F0A94E2F78095A8
:102BF00084238C93BBC0ABE3B0E0EBE3F0E08081D7
:102C0000482F8A81282F30E081E090E0022E02C018
:102C1000880F991F0A94E2F7842B8C93A7C08B81AD
:102C2000282F30E03987288788859985009731F0EB
:102C30002885398521303105B1F098C0A8E3B0E08E
:102C4000E8E3F0E08081482F8A81282F30E081E09E
:102C500090E0022E02C0880F991F0A94E2F7809537
:102C600084238C9383C0A8E3B0E0E8E3F0E08081A4
:102C7000482F8A81282F30E081E090E0022E02C0A8
:102C8000880F991F0A94E2F7842B8C936FC08B8175
:102C9000282F30E03F832E838E819F81009731F073
:102CA0002E813F8121303105B1F060C0A5E3B0E055
:102CB000E5E3F0E08081482F8A81282F30E081E031
:102CC00090E0022E02C0880F991F0A94E2F78095C7
:102CD00084238C934BC0A5E3B0E0E5E3F0E0808172
:102CE000482F8A81282F30E081E090E0022E02C038
:102CF000880F991F0A94E2F7842B8C9337C08B813D
:102D0000282F30E03D832C838C819D81009731F00A
:102D10002C813D8121303105B1F028C0A2E3B0E023
:102D2000E2E3F0E08081482F8A81282F30E081E0C3
:102D300090E0022E02C0880F991F0A94E2F7809556
:102D400084238C9313C0A2E3B0E0E2E3F0E080813F
:102D5000482F8A81282F30E081E090E0022E02C0C7
:102D6000880F991F0A94E2F7842B8C932D960FB647
:102D7000F894DEBF0FBECDBFCF91DF910895DF93F2
:102D8000CF93CDB7DEB727970FB6F894DEBF0FBE4F
:102D9000CDBF8A836B835D834C8319828A818823AC
:102DA00019F08A81853018F081E0898376C08B81A3
:102DB000883018F081E0898370C08A81282F30E044
:102DC0003F832E834E815F814230510559F18E81C0
:102DD0009F818330910534F42E813F81213031056C
:102DE00069F05BC04E815F814330510579F18E817E
:102DF0009F818430910509F43DC04FC0E9E3F0E0C4
:102E00008081282F30E08B81882F90E0A90102C0BB
:102E1000559547958A95E2F7CA018170EC81FD814D
:102E200080833BC0E6E3F0E08081282F30E08B8197
:102E3000882F90E0A90102C0559547958A95E2F741
:102E4000CA018170EC81FD81808327C0E3E3F0E05B
:102E50008081282F30E08B81882F90E0A90102C06B
:102E6000559547958A95E2F7CA018170EC81FD81FD
:102E7000808313C0E0E3F0E08081282F30E08B8175
:102E8000882F90E0A90102C0559547958A95E2F7F1
:102E9000CA018170EC81FD818083898127960FB6FC
:102EA000F894DEBF0FBECDBFCF91DF910895DF93C1
:102EB000CF9300D000D0CDB7DEB789836A838981F4
:102EC000282F30E03C832B838B819C8182309105BD
:102ED000D9F02B813C812330310534F48B819C81E6
:102EE0008130910561F01EC02B813C81233031057A
:102EF00081F08B819C818430910581F013C0EAE3DD
:102F0000F0E08A8180830EC0E7E3F0E08A8180836D
:102F100009C0E4E3F0E08A81808304C0E1E3F0E0EB
:102F20008A8180830F900F900F900F90CF91DF9147
:102F30000895DF93CF9300D000D0CDB7DEB789835B
:102F40006A838981282F30E03C832B838B819C818D
:102F500082309105D9F02B813C812330310534F446
:102F60008B819C818130910561F01EC02B813C8159
:102F70002330310581F08B819C818430910581F073
:102F800013C0EBE3F0E08A8180830EC0E8E3F0E059
:102F90008A81808309C0E5E3F0E08A81808304C0F0
:102FA000E2E3F0E08A8180830F900F900F900F9002
:102FB000CF91DF910895DF93CF9300D000D0CDB7AC
:102FC000DEB789836A838981282F30E03C832B8395
:102FD0008B819C818230910551F12B813C81233082
:102FE000310534F48B819C818130910561F05AC0A8
:102FF0002B813C812330310571F18B819C818430A0
:103000009105E9F14FC0ABE3B0E0EBE3F0E0808184
:10301000482F8A81282F30E081E090E0022E02C004
:10302000880F991F0A94E2F784278C933BC0A8E38A
:10303000B0E0E8E3F0E08081482F8A81282F30E07B
:1030400081E090E0022E02C0880F991F0A94E2F7F7
:1030500084278C9327C0A5E3B0E0E5E3F0E080810E
:10306000482F8A81282F30E081E090E0022E02C0B4
:10307000880F991F0A94E2F784278C9313C0A2E368
:10308000B0E0E2E3F0E08081482F8A81282F30E031
:1030900081E090E0022E02C0880F991F0A94E2F7A7
:1030A00084278C930F900F900F900F90CF91DF910A
:1030B0000895DF93CF93CDB7DEB766970FB6F89438
:1030C000DEBF0FBECDBF81E06FEF0E94571783E0D8
:1030D00060E041E00E94701483E061E041E00E9402
:1030E000701483E062E041E00E9470140E94C30704
:1030F0000E94BD131C821D821B821A821E8A1982A5
:10310000CE0106969E012B5F3F4FAE014A5E5F4F98
:10311000B9010E9403132D81CE010696622F0E94F1
:10312000C40C03C00E9406148C838C818C30D1F3B4
:10313000E7CF991B79E004C0991F961708F0961BFA
:10314000881F7A95C9F780950895AA1BBB1B51E18A
:1031500007C0AA1FBB1FA617B70710F0A61BB70B07
:10316000881F991F5A95A9F780959095BC01CD01AC
:10317000089597FB092E07260AD077FD04D0E5DFD6
:1031800006D000201AF4709561957F4F0895F6F7E8
:10319000909581959F4F08952F923F924F925F9205
:1031A0006F927F928F929F92AF92BF92CF92DF9257
:1031B000EF92FF920F931F93CF93DF93CDB7DEB7BC
:1031C000CA1BDB0B0FB6F894DEBF0FBECDBF099450
:1031D0002A88398848885F846E847D848C849B84A7
:1031E000AA84B984C884DF80EE80FD800C811B81B5
:1031F000AA81B981CE0FD11D0FB6F894DEBF0FBEE4
:10320000CDBFED010895CF93DF93BC0182309105CE
:1032100010F462E070E0A0917800B0917900ED01C7
:10322000E0E0F0E040E050E021C08881998186171D
:10323000970769F48A819B81309719F09383828381
:1032400004C09093790080937800FE0134C0681721
:10325000790738F44115510519F08417950708F4DA
:10326000AC01FE018A819B819C01E9012097E9F66E
:1032700041155105A9F1CA01861B970B049708F463
:10328000BA01E0E0F0E02AC08D919C91119784177B
:103290009507F9F46417750781F412968D919C9146
:1032A0001397309719F09383828304C09093790029
:1032B00080937800FD0132964FC0CA01861B970BA0
:1032C000FD01E80FF91F6193719302978D939C9311
:1032D00043C0FD01828193819C01D9011097A1F621
:1032E0008091760090917700892B41F480916A005B
:1032F00090916B00909377008093760040916C00E2
:1033000050916D004115510541F44DB75EB7809164
:10331000680090916900481B590B2091760030910C
:10332000770024173507B0F4CA01821B930B861768
:10333000970780F0AB014E5F5F4F8417950750F001
:10334000420F531F5093770040937600F901619329
:10335000719302C0E0E0F0E0CF01DF91CF910895DA
:10336000CF93DF93009709F450C0EC0122971B82A2
:103370001A82A0917800B0917900109709F140E08D
:1033800050E0AC17BD0708F1BB83AA83FE01219171
:103390003191E20FF31FAE17BF0779F48D919C9125
:1033A0001197280F391F2E5F3F4F398328831296BC
:1033B0008D919C9113979B838A834115510571F4DC
:1033C000D0937900C093780020C012968D919C9183
:1033D0001397AD01009711F0DC01D3CFFA01D3832D
:1033E000C28321913191E20FF31FCE17DF0769F4F9
:1033F00088819981280F391F2E5F3F4FFA01318351
:1034000020838A819B8193838283DF91CF9108956A
:04341000F894FFCF5E
:10341400000000000000000020007A00000000010D
:0634240002030405060787
:00000001FF
