:100000000C942A000C9447000C9447000C94470071
:100010000C9447000C9447000C9447000C94470044
:100020000C9447000C9447000C9447000C94470034
:100030000C9447000C9447000C9447000C94470024
:100040000C9447000C9447000C9447000C94470014
:100050000C94470011241FBECFE5D8E0DEBFCDBF12
:1000600010E0A0E6B0E0EAE9FFE002C005900D92E2
:10007000AE36B107D9F710E0AEE6B0E001C01D9290
:10008000A237B107E1F70E9454060C94CB070C94F9
:1000900000000F931F93182F83E060E041E00E945F
:1000A000420583E061E040E00E94420581E0612F6B
:1000B0000E94080683E062E041E00E94420500EAF7
:1000C0001FE0C8010197F1F783E062E040E00E9481
:1000D0004205C8010197F1F71F910F910895FF9212
:1000E0000F931F93CF93DF93EC0180E190E00E9488
:1000F000C6068C01209719F480E30E94490040E075
:1001000010C0F801E40FF11DCE016AE070E00E941A
:100110009F068083CE016AE070E00E949F06EB019B
:100120004F5F209771F7F42EFA94CF2DDD27C7FD8E
:10013000D095C00FD11F33C08881843009F185303C
:1001400048F48130B9F0813098F08230A9F08330E2
:1001500021F514C08730D1F0883028F4853091F033
:100160008630D9F411C0883099F08930B1F412C0CA
:1001700080E311C081E30FC082E30DC083E30BC0B5
:1001800084E309C085E307C086E305C087E303C0B5
:1001900088E301C089E30E944900FA942197F7FEA1
:1001A000CBCFDF91CF911F910F91FF900895AF9228
:1001B000BF92CF92DF92FF920F931F93CF93DF9363
:1001C000EC0100E010E070E05B010894A108B108C8
:1001D0009AE0F92E8EEFC82E8FEFD82EC60ED71EBE
:1001E00090C1EC0FFD1F80818B3209F05AC0912F16
:1001F0009F5F402F30E04AC0EC0FFD1F81818B32A2
:1002000019F4430F30E041C08D3209F447C08A32FF
:10021000D1F4192F20E005C02F9D202D1124290F86
:100220001F5FFE01E10FF11D9181892F8A528230FB
:1002300030F09D3221F09F3211F09D3369F7239FFA
:10024000002D11241CC08F32E1F4192F60E005C08D
:100250006F9D602D1124690F1F5FFE01E10FF11DDD
:100260009181892F8A52823030F09D3221F09F3265
:1002700011F09D3369F7832F0E949306082F040F16
:1002800035C13F9D302D1124380F9F5F192F11501C
:10029000E12FF0E0EC15FD050CF4AECF042F030FB9
:1002A00025C18D3209F05AC0912F9F5F402F30E059
:1002B0004AC0EC0FFD1F81818B3209F44CC08D3296
:1002C00019F4431B30E03EC08A32D1F4192F20E0EC
:1002D00005C02F9D202D1124290F1F5FFE01E10F66
:1002E000F11D9181892F8A52823030F09D3221F0A8
:1002F0009F3211F09D3369F7239F802D11241BC07D
:100300008F32E1F4192F60E005C06F9D602D11243C
:10031000690F1F5FFE01E10FF11D9181892F8A5244
:10032000823030F09D3221F09F3211F09D3369F719
:10033000832F0E949306042F081BD8C03F9D302DA9
:100340001124380F9F5F192F1150E12FF0E0EC15A9
:10035000FD050CF4AECF042F031BC8C08A3209F090
:100360005CC030E04FC0EC0FFD1F81818B3209F47F
:100370004FC08D3209F44CC08A32E9F41F5F20E08F
:1003800005C02F9D202D1124290F1F5FFE01E10FB5
:10039000F11D9181892F8A52823030F09D3221F0F7
:1003A0009F3211F09D3369F7309FC0011124289FBF
:1003B000802D112420C0912F9F5F8F32F1F4192FCF
:1003C00060E005C06F9D602D1124690F1F5FFE0165
:1003D000E10FF11D9181892F8A52823030F09D32D8
:1003E00021F09F3211F09D3369F7832F0E9493060D
:1003F000809F802D112431E00CC03F9D302D1124B1
:10040000380F192FE12FF0E0EC15FD050CF4ABCF00
:10041000802F389F002D112469C08F3209F062C0EF
:1004200030E053C0EC0FFD1F81818B3209F453C0C3
:100430008D3209F450C08A32F1F41F5F20E005C00C
:100440002F9D202D1124290F1F5FFE01E10FF11DAB
:100450009181892F8A52823030F09D3221F09F3273
:1004600011F09D3369F7802F632F0E949306289F18
:10047000602D112423C0912F9F5F8F3209F5192F12
:1004800020E005C02F9D202D1124290F1F5FFE01A4
:10049000E10FF11D9181892F8A52823030F09D3217
:1004A00021F09F3211F09D3369F7802F632F0E9456
:1004B000930690E0622F70E00E94B30631E00CC01A
:1004C0003F9D302D1124380F192FE12FF0E0EC154E
:1004D000FD050CF4A7CF602F862F632F0E94930693
:1004E000082F04C00F9D002D1124080FFE01E10FFD
:1004F000F11D81818D3321F4802F90E00E946F00E7
:100500001F5FE12FF0E0EA15FB050CF46ACEDF91E6
:10051000CF911F910F91FF90DF90CF90BF90AF9040
:1005200008950F931F93182F83E060E040E00E942E
:10053000420583E061E040E00E94420581E0612FD6
:100540000E94080683E062E041E00E94420500EA62
:100550001FE0C8010197F1F783E062E040E00E94EC
:100560004205C8010197F1F71F910F910895605856
:100570008295880F880F807C860F0E9491020895D3
:10058000CF92DF92FF920F931F93CF93DF936C0173
:10059000062FF42E162F1295110F110F107C140F29
:1005A000812F86518A3220F481E060E00E94B702F8
:1005B000183620F080E060E00E94B702802F6F2D97
:1005C0000E94B70200E014C01F3031F481E060E007
:1005D0000E94B70210E407C0103529F480E060E003
:1005E0000E94B70210E088810E9449001F5F0F5FE0
:1005F000E601C00FD11D8881882331F7DF91CF91AB
:100600001F910F91FF90DF90CF900895CF93DF93CC
:10061000EB01883009F45DC0893098F48430C9F169
:10062000853040F4823059F1833070F5813009F023
:100630007DC020C0863009F442C0873008F044C035
:1006400039C08C3009F459C08D3038F48A3009F43F
:100650004AC08B3008F04CC041C08E3009F457C0FE
:100660008E3008F44FC08F3009F456C0803109F045
:100670005DC057C087E30E94490087E056C084E30D
:100680000E94490084E051C081E30E94490081E05A
:100690004CC081E00E94910280E991E028EC30E0BA
:1006A000F9013197F1F70197D9F780E060E00E94F6
:1006B000B7023CC088E30E94490088E036C085E369
:1006C0000E94490085E031C082E30E94490082E037
:1006D0002CC080E30E944900188228C089E30E9450
:1006E000490089E022C086E30E94490086E01DC0DF
:1006F00083E30E94490083E018C08DE30E94490013
:100700008DE313C08FE20E9449008FE20EC08AE29F
:100710000E9449008AE209C08DE20E9449008DE2F0
:1007200004C08BE20E9449008BE28883DF91CF9165
:100730000895CF92DF92EF92FF920F931F93CF9382
:10074000DF93EC017B0100E028ECC22ED12C0E944B
:100750003F04182F8823D9F3843081F481E00E946C
:10076000910280E991E0F6013197F1F70197D9F70D
:1007700080E060E00E94B70200E0E9CFBE01600FB8
:10078000711D0E9406030F5F1C3009F7F7010083FB
:10079000DF91CF911F910F91FF90EF90DF90CF905D
:1007A0000895DF92EF92FF920F931F93CF93DF9301
:1007B0008C01F62EE42ED22E862F880F880F880FFC
:1007C000805C0E949102C0E0D0E0F801EC0FFD1FB8
:1007D00080810E9449002196C830D105B1F78E2D45
:1007E0006D2D0E94B7028F2D0E944900DF91CF919D
:1007F0001F910F91FF90EF90DF90089583E060E0EC
:1008000041E00E94BA0483E061E041E00E94BA0442
:1008100083E062E041E00E94BA0481E06FEF0E9451
:10082000F40580E991E028EC30E0F9013197F1F727
:100830000197D9F788E30E94910280E991E028ECC2
:1008400030E0F9013197F1F70197D9F78FE00E9475
:10085000910280E991E028EC30E0F9013197F1F75D
:100860000197D9F781E00E94910280E991E028EC9C
:1008700030E0F9013197F1F70197D9F708958F9298
:100880009F92BF92CF92DF92EF92FF920F931F93AE
:10089000DF93CF930F92CDB7DEB781E089838AE6ED
:1008A000E82E80E0F82EBB24CC24C3944E0108949B
:1008B000811C911C84E0F701608140E00E944205A8
:1008C00006E610E0DC2C84E0F8016081A4010E94BF
:1008D000CE0507C084E0F8016081A4010E94CE0526
:1008E000BD2C89818823B1F30F5F1F4FD394F0E0B3
:1008F0000A361F0741F784E0F70161917F0141E06B
:100900000E944205F4E0CF0E81E1C81699F68B2DC6
:100910000F90CF91DF911F910F91FF90EF90DF909B
:10092000CF90BF909F908F900895CF93DF93C6E6AE
:10093000D0E084E0688140E00E94BA0484E06991DC
:1009400041E00E94420580E0CA36D80791F7CAE626
:10095000D0E084E0688141E00E94BA0484E06991BB
:1009600041E00E94420580E0CE36D80791F7DF9142
:10097000CF910895982F8150843008F082C068305C
:1009800008F07FC0423008F07CC0923049F19330CB
:1009900020F4913009F075C007C0933009F43CC0D1
:1009A000943009F06EC053C0442371F0413009F017
:1009B00068C02AB381E090E002C0880F991F6A9551
:1009C000E2F7282B2ABB08952AB381E090E002C009
:1009D000880F991F6A95E2F7809582238ABB089554
:1009E000442371F0413009F04CC027B381E090E01E
:1009F00002C0880F991F6A95E2F7282B27BB08953C
:100A000027B381E090E002C0880F991F6A95E2F752
:100A10008095822387BB0895442369F0413089F58E
:100A200024B381E090E002C0880F991F6A95E2F735
:100A3000282B24BB089524B381E090E002C0880FE6
:100A4000991F6A95E2F78095822384BB0895442319
:100A500069F04130B1F421B381E090E002C0880F29
:100A6000991F6A95E2F7282B21BB089521B381E0F5
:100A700090E002C0880F991F6A95E2F78095822363
:100A800081BB0895982F8150843008F086C068306B
:100A900008F083C0423008F080C0923051F19330AA
:100AA00020F4913009F079C007C0933009F43EC0BA
:100AB000943009F072C056C0442321F0413009F04F
:100AC0006CC00CC02BB381E090E002C0880F991F6E
:100AD0006A95E2F7809582238BBB08952BB381E062
:100AE00090E002C0880F991F6A95E2F7282B2BBB74
:100AF0000895442321F0413009F04FC00CC028B3C1
:100B000081E090E002C0880F991F6A95E2F7809516
:100B1000822388BB089528B381E090E002C0880F4B
:100B2000991F6A95E2F7282B28BB0895442319F0F2
:100B3000413099F50CC025B381E090E002C0880FE8
:100B4000991F6A95E2F78095822385BB089525B3A6
:100B500081E090E002C0880F991F6A95E2F7282B88
:100B600025BB0895442319F04130B9F40CC022B3D9
:100B700081E090E002C0880F991F6A95E2F78095A6
:100B8000822382BB089522B381E090E002C0880FE7
:100B9000991F6A95E2F7282B22BB0895982FFA0136
:100BA00081508430F8F46830E8F4923061F093308A
:100BB00018F49130A9F405C0933039F0943081F4E1
:100BC00006C089B305C086B303C083B301C080B338
:100BD00090E002C0959587956A95E2F781708083D1
:100BE00080E0089581E00895823061F0833018F448
:100BF000813069F405C0833039F0843041F406C097
:100C00006ABB089567BB089564BB089561BB0895EE
:100C1000823061F0833018F4813069F405C083308C
:100C200039F0843041F406C06BBB089568BB089569
:100C300065BB089562BB08958230A9F0833018F433
:100C4000813089F505C08330C9F0843061F521C059
:100C50002BB381E090E002C0880F991F6A95E2F7FC
:100C600028272BBB089528B381E090E002C0880FAD
:100C7000991F6A95E2F7282728BB089525B381E0DC
:100C800090E002C0880F991F6A95E2F7282725BBDC
:100C9000089522B381E090E002C0880F991F6A9501
:100CA000E2F7282722BB0895CF92DF92EF92FF92BE
:100CB0000F931F93DF93CF93CDB7DEB762970FB635
:100CC000F894DEBF0FBECDBF81E06FEF0E94F40548
:100CD00083E060E041E00E94BA0483E061E041E02B
:100CE0000E94BA0483E062E041E00E94BA040E94DC
:100CF000FE030E94950419821A828E010D5F1F4F18
:100D000082E0C82ED12CCC0EDD1E7E010894E11CA1
:100D1000F11CC801B701A6010E949903C8016981AD
:100D20000E94D700F6CF991B79E004C0991F96174F
:100D300008F0961B881F7A95C9F780950895AA1B1D
:100D4000BB1B51E107C0AA1FBB1FA617B70710F0B6
:100D5000A61BB70B881F991F5A95A9F780959095E8
:100D6000BC01CD01089597FB092E07260AD077FD17
:100D700004D0E5DF06D000201AF4709561957F4F0E
:100D80000895F6F7909581959F4F0895CF93DF933F
:100D9000BC018230910510F462E070E0A091700017
:100DA000B0917100ED01E0E0F0E040E050E021C0E2
:100DB000888199818617970769F48A819B8130978A
:100DC00019F09383828304C0909371008093700024
:100DD000FE0134C06817790738F44115510519F040
:100DE0008417950708F4AC01FE018A819B819C0160
:100DF000E9012097E9F641155105A9F1CA01861BC1
:100E0000970B049708F4BA01E0E0F0E02AC08D9156
:100E10009C91119784179507F9F46417750781F46D
:100E200012968D919C911397309719F0938382833A
:100E300004C09093710080937000FD0132964FC002
:100E4000CA01861B970BFD01E80FF91F619371938F
:100E500002978D939C9343C0FD01828193819C01F5
:100E6000D9011097A1F680916E0090916F00892BA7
:100E700041F4809162009091630090936F008093A1
:100E80006E0040916400509165004115510541F498
:100E90004DB75EB78091600090916100481B590B7F
:100EA00020916E0030916F0024173507B0F4CA010D
:100EB000821B930B8617970780F0AB014E5F5F4F45
:100EC0008417950750F0420F531F50936F004093C3
:100ED0006E00F9016193719302C0E0E0F0E0CF0190
:100EE000DF91CF910895CF93DF93009709F450C01D
:100EF000EC0122971B821A82A0917000B0917100C0
:100F0000109709F140E050E0AC17BD0708F1BB8332
:100F1000AA83FE0121913191E20FF31FAE17BF07A3
:100F200079F48D919C911197280F391F2E5F3F4FB7
:100F30003983288312968D919C9113979B838A8382
:100F40004115510571F4D0937100C093700020C019
:100F500012968D919C911397AD01009711F0DC01D1
:100F6000D3CFFA01D383C28321913191E20FF31FD2
:100F7000CE17DF0769F488819981280F391F2E5F0A
:100F80003F4FFA01318320838A819B81938382833F
:0A0F9000DF91CF910895F894FFCF90
:0E0F9A0020007200000000010203040506079B
:00000001FF
